:03000000020336C2
:0C033600787FE4F6D8FD75810F0202B854
:0C0342005389F0438901E4F58AF58C2210
:080358007F127EEBDEFEDFFCEC
:01036000227A
:0A034E00C295D295120358C2952201
:1002B80012034212034E3096FDD28C2096FDC28C5A
:1002C800AF8CEFFEAD8A7C00E42DFDEC3EFCE41221
:1002D80002277B487AE1798A783F1200038F0B8ED8
:1002E8000A8D098C087F967E437D0B7C3DAB0BAA5B
:1002F8000AA909A808120003E4FBFAF978401201D8
:100308000C8F0F8E0E8D0D8C0CE4FFFE7D207C4132
:10031800AB0FAA0EA90DA80C1201A95006C2B7D29C
:0C032800B68004D2B7C2B6E4F58AF58CAA
:020334008082C5
:10000300EC4D6011E8497017ED33EC3304600DE4F7
:10001300FCFFFEFD22E933E8330470F80202951277
:10002300026058046009E4CC248150062850090278
:10003300029F28400302029CC0E0EB4A7044B9804F
:1000430006D0E0FB02028BEF4E701CBD8008EBFF75
:10005300EAFEE9FD80EBE98DF0A4FEE5F00200EC99
:10006300E9CDF9EAFEEBFFEF89F0A4FCE5F0CE89D8
:10007300F0A42EFFE435F0CD89F0A42DFEE435F095
:100083008067EF4E7005BD80D780C3EF8BF0A4ACC3
:10009300F0EE8BF0A42CFCE435F0F8EF8AF0A42CFE
:1000A300E5F038FCE433CB8DF0A42CFCE5F03BF811
:1000B300EE8AF0A42CFCE5F038F8E433CF89F0A401
:1000C3002CFCE5F038CF3400CE89F0A42FFFE5F007
:1000D3003EFEE433C98DF0A42EFEE5F039CD8AF05F
:1000E300A42FFFE5F03EFEE43DFD33D0E0FB5007D7
:1000F3000BBB000F02029FEC2CFCEF33FFEE33FE31
:06010300ED33FD0202775E
:1001090002029FEC5D046005E85904700302029540
:10011900120260580460F6EC4860F2EC7004FDFECF
:10012900FF22C860DB2481C85009C39860025006C9
:1001390002029C9850CAF582E9294B4A7005AB82A4
:1001490002028B75F0007C1A7880C3EF9BEE9AED62
:1001590099400DC3EF9BFFEE9AFEED99FDE842F041
:10016900DC23ACF0D0E0FFD0E0FED0E0FDAB822094
:10017900E7101BEB60BAEC2CFCEF33FFEE33FEED1E
:1001890033FD020277E803F830E705C0F075F000A7
:10019900EF2FFFEE33FEED33FD40B830E7C280AA02
:1001A90074F8CC6480CCC86480C8F58204604FC3FD
:1001B900EB9FF5F0EA9E42F0E99D42F0E89C45F09C
:1001C900603C501DE5825FFFE582D313CB5BCBF426
:1001D9002B5582FB50280ABA002409B9002008804F
:1001E9001DE5825BFBE582D313CF5FCFF4C3132FE9
:1001F9005582FF50090EBE00050DBD00010CC3EB71
:100209009FF5F0EA9E42F0E99D42F0E89C45F060D6
:0902190007CC4820E701B3EC22F8
:1002220075F020800E75F010800575F0087D007E57
:10023200007F003392D530D5031202AAEC3340106E
:10024200EF33FFEE33FEED33FDEC33FCD5F0ED2260
:0E025200E5F0247EA2D513CC92E7CDCEFF229C
:10026000E9D2E7C933E833F892D5EDD2E7CD33ECE4
:0702700033FC5002B2D5225D
:10027700EC30E7100FBF000C0EBE00080DBD0004E8
:100287000BEB6014A2D5EB13FCED92E7FD2274FF94
:10029700FCFDFEFF22E480F8A2D574FF13FC7D80ED
:0302A700E480EF01
:0E02AA00C3E49FFFE49EFEE49DFDE49CFC2265
:00000001FF
