:0300000002008576
:0C008500787FE4F6D8FD758107020003C7
:0F00680068656C6C6F20776F726C64210D0A00F5
:080091007F127EEBDEFEDFFCB6
:010099002244
:0D007700007F087E017DF3DDFEDEFCDFFA78
:010084002259
:10004000758E017598505389F0438920758BFD7525
:050050008DFDD28E229F
:08009A008F993099FDC29922F3
:10005500120027FF600C12009A740129F9E43AFA9C
:0300650080EE2208
:10000300D2B71200401200777BFF7A0079681200A2
:10001300553098F1C298AC99BC6F02C2B7BC63E586
:04002300D2B780E1EF
:10002700BB010689828A83E0225002E722BBFE02D7
:09003700E32289828A83E493220A
:00000001FF
