:0300000002009B60
:0C009B00787FE4F6D8FD75810802006B48
:0F007E0068656C6C6F20776F726C64210D0A00DF
:0800A7007F127EEBDEFEDFFCA0
:0100AF00222E
:0D008D00007F087E017DF3DDFEDEFCDFFA62
:01009A002243
:10002600758E017598505389F0438920758BFD753F
:090036008DFDD28ED2AFD2AC22B6
:0800B0008F993099FDC29922DD
:1000580012003FFF600C1200B0740129F9E43AFA6B
:0300680080EE2205
:10006B00D2B712002612008D7BFF7A00797E120028
:03007B005880F2B8
:03002300020003D5
:10000300C0E0C0D0309813C298859908E508B43190
:0F00130002C2B7E508B43002D2B7D0D0D0E03285
:10003F00BB010689828A83E0225002E722BBFE02BF
:09004F00E32289828A83E49322F2
:00000001FF
