:030000000200DA21
:0C00DA00787FE4F6D8FD75812102012139
:10022D0068656C6C6F20776F726C64210D0A0065C8
:05023D006E0073650076
:04001C0002080000D6
:080276007F127EEBDEFEDFFCCF
:01027E00225D
:0D026800007F087E017DF3DDFEDEFCDFFA85
:010275002266
:10000300758E017598505389F0438920758BFD7562
:090013008DFDD28ED2AFD2AC22D9
:08027F008F993099FDC299220C
:100242001201E8FF600C12027F740129F9E43AFA04
:0302520080EE2219
:10025500D2B71200031202687BFF7A02792D1202CF
:030265004280F2E2
:03002300020026B2
:10002600C0E0C0F0C083C082C0D075D000C000C0A0
:0D00360001C002C003C004C005C006C00721
:10004300309879C298740A2509F8A6990509E50933
:1000530070020508740A640C44007004F508F5097D
:100063007519FF751A02751B3C7B007A00790A1219
:100073000166EA494B6017C2B77508007509007E2F
:10008300007F0C7D007B007A00790A12020175194A
:10009300FF751A02751B3F7B007A00790A1201660D
:1000A300EA494B6017D2B77508007509007E007FD7
:0C00B3000C7D007B007A00790A1202012B
:1000BF00D007D006D005D004D003D002D001D00095
:0B00CF00D0D0D082D083D0F0D0E0323F
:1000E600020255E493A3F8E493A34003F68001F2D9
:1000F60008DFF48029E493A3F85407240CC8C3331B
:10010600C4540F4420C8834004F456800146F6DFE9
:10011600E4800B010204081020408090001CE47E5D
:10012600019360BCA3FF543F30E509541FFEE493DE
:10013600A360010ECF54C025E060A840B8E493A3A5
:10014600FAE493A3F8E493A3C8C582C8CAC583CAD0
:10015600F0A3C8C582C8CAC583CADFE9DEE780BE88
:0100200000DF
:1001E800BB010689828A83E0225002E722BBFE0215
:0901F800E32289828A83E4932248
:100166008B168A178918AB19AA1AA91B1201E860FF
:1001760063AB16AA17A9181201E8605F85191C85DA
:100186001A1D851B1E8B1F8A208921AB1CAA1DA93F
:100196001E1201E8FF6023AB1FAA20A9211201E865
:1001A6006F701704251EF51EE4351DF51D74012517
:1001B60021F521E43520F52080D1AB1CAA1DA91E0E
:1001C6001201E87002800D74012518F518E4351740
:1001D600F517809DAB16AA17A918227B007A00791D
:0201E6000022F5
:10020100EF4E6012EF60010EEDBB010B89828A8314
:10021100F0A3DFFCDEFA2289F05007F709DFFCA921
:0C022100F022BBFEFCF309DFFCA9F02278
:00000001FF
