:0300000002000EED
:0C000E00787FE4F6D8FD75810B020055E8
:0400030002080000EF
:0C0105007F0F7E027DEBDDFEDEFCDFFAEA
:0101110022CB
:1000F300758901758A33758CFED28CC28DD2A9D2D3
:02010300AF2229
:0C0112007F037E1A7DDFDDFEDEFCDFFADD
:01011E0022BE
:1000DD001201121200F3750A00750B04E4F508F510
:0600ED000912010580F07C
:03000B0002009A56
:10009A00C0E0C0D075D000C0000509E509700205AE
:1000AA0008758A33758CFEC3E509950BE50A6480E9
:1000BA00F8E5086480985004D2918002C291E5095B
:1000CA00642845087006F508F509D291D000D0D009
:0300DA00D0E03241
:10001A000200DDE493A3F8E493A34003F68001F21F
:10002A0008DFF48029E493A3F85407240CC8C333E7
:10003A00C4540F4420C8834004F456800146F6DFB6
:10004A00E4800B0102040810204080900003E47E43
:10005A00019360BCA3FF543F30E509541FFEE493AB
:10006A00A360010ECF54C025E060A840B8E493A372
:10007A00FAE493A3F8E493A3C8C582C8CAC583CA9D
:10008A00F0A3C8C582C8CAC583CADFE9DEE780BE55
:0100070000F8
:00000001FF
