:0300000002007289
:0C007200787FE4F6D8FD75810702004499
:0F00550068656C6C6F20776F726C64210D0A0008
:08007E007F127EEBDEFEDFFCC9
:010086002257
:0D006400007F087E017DF3DDFEDEFCDFFA8B
:01007100226C
:10001C00758E017598405389F0438920758BFD7559
:05002C008DFDD28E22C3
:080087008F993099FDC2992206
:10003100120003FF600C120087740129F9E43AFAF7
:0300410080EE222C
:1000440012001C1200647BFF7A0079551200318083
:01005400F2B9
:10000300BB010689828A83E0225002E722BBFE02FB
:09001300E32289828A83E493222E
:00000001FF
